:100000000C945D000C9485000C9485000C94850084
:100010000C9485000C9485000C9485000C9485004C
:100020000C9485000C9485000C9485000C9485003C
:100030000C9485000C9485000C9485000C9485002C
:100040000C948A020C9485000C94FA020C94D4024D
:100050000C9485000C9485000C9485000C9485000C
:100060000C9485000C94850000000008000201003B
:100070000003040700000000000000000000000072
:10008000250028002B0000000000240027002A0083
:10009000040404040404040402020202020203032E
:1000A0000303030301020408102040800102040836
:1000B00010200102040810202C0311241FBECFEFD2
:1000C000D8E0DEBFCDBF11E0A0E0B1E0E8E3F8E0AA
:1000D00002C005900D92A033B107D9F721E0A0E34B
:1000E000B1E001C01D92A83DB207E1F710E0CDE5F7
:1000F000D0E004C02197FE010E941404CC35D10742
:10010000C9F70E9462030C941A040C94000090E05A
:10011000FC01EC55FF4F249180579F4FFC018491C7
:10012000882399F090E0880F991FFC01EA57FF4F50
:10013000A591B491FC01E458FF4F859194918FB73C
:10014000F894EC91E22BEC938FBF089590E0FC01C2
:10015000E859FF4F2491FC01EC55FF4F3491FC010D
:10016000E057FF4FE491EE23C9F0222339F023300A
:1001700001F1A8F4213019F1223029F1F0E0EE0F5D
:10018000FF1FE458FF4FA591B4918FB7F894EC91FD
:10019000611126C030953E233C938FBF08952730D0
:1001A000A9F02830C9F0243049F7809180008F7D74
:1001B00003C0809180008F7780938000DFCF84B56B
:1001C0008F7784BDDBCF84B58F7DFBCF8091B0006E
:1001D0008F778093B000D2CF8091B0008F7DF9CF20
:1001E0003E2BDACF3FB7F8948091350190913601DC
:1001F000A0913701B091380126B5A89B05C02F3FCB
:1002000019F00196A11DB11D3FBFBA2FA92F982F3C
:100210008827BC01CD01620F711D811D911D42E037
:10022000660F771F881F991F4A95D1F708958F92FF
:100230009F92AF92BF92CF92DF92EF92FF924B01CB
:100240005C010E94F2006B017C010E94F2006C19BB
:100250007D098E099F09683E734081059105A8F3C9
:1002600021E0821A9108A108B10888EEC80E83E047
:10027000D81EE11CF11C81149104A104B10429F7DA
:10028000FF90EF90DF90CF90BF90AF909F908F90B6
:100290000895CF93DF93C6EDD1E061E088810E949D
:1002A000A6006AEF70E080E090E00E94170160E035
:1002B00088810E94A6006AEF70E080E090E0DF9104
:1002C000CF910C941701CF93DF93C6EDD1E061E09D
:1002D00088810E94A60068EE73E080E090E00E94B2
:1002E000170160E088810E94A6006AEF70E080E05C
:1002F00090E0DF91CF910C941701AF92BF92CF9213
:10030000DF92EF92FF920F931F93CF93DF936C01D5
:100310007B018B01040F151FEB015E01AE18BF08B6
:10032000C017D10759F06991D601ED91FC91019068
:10033000F081E02DC6010995892B79F7C501DF9180
:10034000CF911F910F91FF90EF90DF90CF90BF90D2
:10035000AF900895FC01538D448D252F30E0842FFC
:1003600090E0821B930B541710F0CF9608950197DD
:100370000895FC01918D828D981761F0A28DAE0FCA
:10038000BF2FB11D5D968C91928D9F5F9F73928F51
:1003900090E008958FEF9FEF0895FC01918D828D7D
:1003A000981731F0828DE80FF11D858D90E008954A
:1003B0008FEF9FEF0895FC01918D228D892F90E0A2
:1003C000805C9F4F821B91098F739927089589E361
:1003D00091E00E94DB0121E0892B09F420E0822FCB
:1003E000089580E090E0892B29F00E94E7018111B7
:1003F0000C9400000895FC01A48DA80FB92FB11D25
:10040000A35ABF4F2C91848D90E001968F7399274A
:10041000848FA689B7892C93A089B1898C91837028
:1004200080648C93938D848D981306C00288F38921
:10043000E02D80818F7D80830895EF92FF920F934E
:100440001F93CF93DF93EC0181E0888F9B8D8C8D80
:1004500098131AC0E889F989808185FF15C09FB774
:10046000F894EE89FF896083E889F9898081837037
:10047000806480839FBF81E090E0DF91CF911F91E6
:100480000F91FF90EF900895F62E0B8D10E00F5F07
:100490001F4F0F731127E02E8C8D8E110CC00FB6DD
:1004A00007FCFACFE889F989808185FFF5CFCE0175
:1004B0000E94FB01F1CFEB8DEC0FFD2FF11DE35AF4
:1004C000FF4FF0829FB7F8940B8FEA89FB898081F8
:1004D0008062CFCFCF93DF93EC01888D8823B9F072
:1004E000AA89BB89E889F9898C9185FD03C080813F
:1004F00086FD0DC00FB607FCF7CF8C9185FFF2CFBC
:10050000808185FFEDCFCE010E94FB01E9CFDF9115
:10051000CF9108951F920F920FB60F9211242F932F
:100520003F938F939F93AF93BF93809131019091AD
:100530003201A0913301B09134013091300123E0B8
:10054000230F2D3758F50196A11DB11D20933001C1
:100550008093310190933201A0933301B093340121
:100560008091350190913601A0913701B091380109
:100570000196A11DB11D8093350190933601A09382
:100580003701B0933801BF91AF919F918F913F9107
:100590002F910F900FBE0F901F90189526E8230FF4
:1005A0000296A11DB11DD2CF1F920F920FB60F92CE
:1005B00011242F933F934F935F936F937F938F9368
:1005C0009F93AF93BF93EF93FF9389E391E00E94D2
:1005D000FB01FF91EF91BF91AF919F918F917F911F
:1005E0006F915F914F913F912F910F900FBE0F90A0
:1005F0001F9018951F920F920FB60F9211242F93F0
:100600008F939F93EF93FF93E0914901F0914A01FB
:100610008081E0914F01F091500182FD1BC09081DB
:10062000809152018F5F8F7320915301821741F0A7
:10063000E0915201F0E0E75CFE4F958F809352010C
:10064000FF91EF919F918F912F910F900FBE0F907F
:100650001F9018958081F4CFE9E3F1E013821282B4
:1006600088EE93E0A0E0B0E084839583A683B7830F
:1006700084E091E09183808385EC90E09587848786
:1006800084EC90E09787868780EC90E0918B808B5C
:1006900081EC90E0938B828B82EC90E0958B848B45
:1006A00086EC90E0978B868B118E128E138E148EB3
:1006B0008DE00E9487008DE090E09093D7018093B9
:1006C000D6010895789484B5826084BD84B5816034
:1006D00084BD85B5826085BD85B5816085BD80910D
:1006E0006E00816080936E00109281008091810085
:1006F000826080938100809181008160809381007D
:10070000809180008160809380008091B10084603E
:100710008093B1008091B00081608093B00080919F
:100720007A00846080937A0080917A00826080935E
:100730007A0080917A00816080937A0080917A00BB
:10074000806880937A001092C100E0914901F09195
:100750004A0182E08083E0914501F09146011082D8
:10076000E0914701F09148018FEC80831092510194
:10077000E0914D01F0914E0186E08083E0914B01C4
:10078000F0914C01808180618083E0914B01F09178
:100790004C01808188608083E0914B01F0914C0195
:1007A000808180688083E0914B01F0914C018081D1
:1007B0008F7D808349E150E062E171E089E391E05F
:1007C0000E947D0142E050E06CE271E089E391E03B
:1007D0000E947D018DE00E94870060E08DE00E9414
:1007E000A600C0E0D0E00E9449010E9449010E9499
:1007F00049010E9463010E9463010E9463010E94FB
:1008000049010E9449010E94490164EF71E080E0C2
:1008100090E00E941701209731F30E94E70188239E
:1008200011F30E940000DFCFEE0FFF1F0590F4913F
:08083000E02D0994F894FFCFBC
:10083800000000001D027D01AA016A02DB01B90166
:10084800CD0145766572797468696E672073656550
:100858006D732066696E65202E2E2E000D0A00002D
:00000001FF
